:020000040800F2
:1000000000000220E9090008510900085909000808
:100010006109000869090008710900080000000072
:100020000000000000000000000000007909000846
:10003000870900080000000095090008A3090008CE
:10004000390A0008390A0008390A0008390A000884
:10005000390A0008390A0008390A0008390A000874
:10006000390A0008390A0008390A0008390A000864
:10007000390A0008390A0008390A0008390A000854
:10008000390A0008390A0008B1090008390A0008CD
:10009000390A0008390A0008390A0008390A000834
:1000A000390A0008390A0008390A0008390A000824
:1000B000390A0008390A0008390A0008390A000814
:1000C000390A0008390A0008390A0008390A000804
:1000D000390A0008390A0008390A0008390A0008F4
:1000E000390A0008390A0008390A0008390A0008E4
:1000F000390A0008390A0008390A0008390A0008D4
:10010000390A0008390A0008390A0008390A0008C3
:10011000390A0008390A0008390A0008390A0008B3
:10012000390A0008390A0008390A0008390A0008A3
:10013000390A0008390A0008390A0008390A000893
:10014000390A0008390A0008390A0008390A000883
:10015000390A0008390A0008390A0008390A000873
:10016000390A0008390A0008390A0008390A000863
:10017000390A0008390A0008390A0008390A000853
:10018000390A0008390A0008390A0008390A000843
:10019000390A000800000000390A0008390A00087E
:1001A000390A0008390A0008390A0008390A000823
:1001B000390A0008390A0008390A0008390A000813
:1001C000390A0008390A0008390A0008390A000803
:0801D000390A0008390A000891
:1001D80010B5054C237833B9044B13B10448AFF379
:1001E80000800123237010BD0C00002000000000D7
:1001F800D451000808B5034B1BB103490348AFF3BA
:10020800008008BD0000000010000020D451000844
:1002180080B582B000AF78607B681B68B3F1A04FEF
:1002280006D1054801F0F0F903469AB2034B1A804B
:1002380000BF0837BD4680BD280000202C010020E3
:1002480080B500AF00F0F5FB00F08AF800F026FA60
:1002580000F048F900F0CEF800F0C6F9002139485E
:1002680003F0D2FE0821374803F0CEFE04213648B9
:1002780003F0CAFE7F21354802F0D0F9334801F077
:100288006BF8334B1B881A4640F6475302FB03F3BF
:10029800304A82FB03121A44D212DB17D31A9BB2DC
:1002A80003F5A55314339AB22B4B1A802A4B1B889B
:1002B8009BB241F2E54293420BD8284B00229A6345
:1002C8004FF0804300225A634FF080430022DA63E4
:1002D80036E01F4B1B881A4642F2331302FB03F326
:1002E8001C4A82FB03121A44D212DB17D21A1B4B88
:1002F8009A634FF400714FF0904002F0C7FD034637
:10030800012B0AD1144B1B889AB24FF080435A63D1
:100318004FF080430022DA63B3E74FF400714FF0E7
:10032800904002F0B3FD0346002BAAD10A4B1B886C
:100338009AB24FF08043DA634FF0804300225A6349
:100348009FE700BF94000020E00000202800002064
:100358002C010020810008802E01002000040040AC
:1003680080B594B000AF07F1180338220021184671
:1003780004F000FF3B1D00221A605A609A60DA60A0
:100388001A61002002F09AFD0123BB614FF480330B
:10039800FB6102237B630323BB630223FB635523B7
:1003A8003B6402237B640223BB640223FB6407F1E2
:1003B8001803184602F036FE0346002B01D000F061
:1003C800A5F90F237B600323BB600023FB60002398
:1003D8003B6100237B613B1D0421184603F034F97F
:1003E8000346002B01D000F091F900BF5037BD46FD
:1003F80080BD000080B58CB000AF07F12403002257
:100408001A605A609A603B1D20220021184604F0A9
:10041800B1FE324B4FF0A0421A60304B4FF44032DD
:100428005A602E4B00229A602C4B0022DA602B4B2C
:1004380000221A61294B00225A61284B04229A6132
:10044800264B00221A77254B01225A77234B01228B
:100458001A62224B002283F82420204B0022DA6201
:100468001E4B00221A631D4B002283F838201B4BB9
:100478000022DA63194B002283F84020174800F065
:10048800AFFD0346002B01D000F040F900237B624A
:1004980007F124031946114802F054F90346002BCA
:1004A80001D000F033F90E4B7B600623BB600723B5
:1004B800FB607F233B6104237B610023BB613B1D01
:1004C8001946064801F022FB0346002B01D000F034
:1004D8001DF900BF3037BD4680BD00BF2800002091
:1004E8000400600880B58EB000AF07F12803002231
:1004F8001A605A609A60DA6007F11C0300221A60D9
:100508005A609A603B4600221A605A609A60DA6024
:100518001A615A619A61334B4FF080421A60314B2D
:1005280000225A602F4B00229A602E4B42F233125F
:10053800DA602C4B00221A612A4B00229A61294862
:1005480003F0B4FC0346002B01D000F0DFF84FF4B1
:100558008053BB6207F128031946224803F07AFF4B
:100568000346002B01D000F0D1F81E4803F0F5FC3B
:100578000346002B01D000F0C9F80023FB610023DB
:100588007B6207F11C031946164804F05DFD03461B
:10059800002B01D000F0BAF860233B6000237B6099
:1005A8000023BB6000233B613B46002219460D48EF
:1005B80003F03CFE0346002B01D000F0A7F83B46B1
:1005C80008221946074803F031FE0346002B01D0E4
:1005D80000F09CF8034800F05DF900BF3837BD46CD
:1005E80080BD00BF9400002080B58AB000AF07F13D
:1005F8001C0300221A605A609A603B4600221A6067
:100608005A609A60DA601A615A619A61214B224AEB
:100618001A60204B00225A601E4B00229A601D4B24
:1006280042F23312DA601B4B00221A61194B002286
:100638009A61184803F091FC0346002B01D000F0A2
:1006480065F80023FB6100237B6207F11C03194650
:10065800104804F0F9FC0346002B01D000F056F8CE
:1006680060233B6000237B600023BB6000233B6169
:100678003B4604221946074803F0D8FD0346002BE1
:1006880001D000F043F8034800F004F900BF283710
:10069800BD4680BDE00000200004004080B588B061
:1006A80000AF07F10C0300221A605A609A60DA6002
:1006B8001A61154BDB6C144A43F02003D364124BC8
:1006C800DB6C03F02003BB60BB680F4BDB6C0E4A8E
:1006D80043F00103D3640C4BDB6C03F001037B6034
:1006E8007B684FF40073FB6000233B6101237B614F
:1006F80007F10C0319464FF0904002F03BFA00BF97
:100708002037BD4680BD00BF0010024080B400AF56
:1007180072B600BF00BFFDE780B582B000AF0F4BD7
:100728001B6E0E4A43F0010313660C4B1B6E03F05D
:1007380001037B607B68094B9B6D084A43F080533B
:100748009365064B9B6D03F080533B603B6802F05A
:1007580059FC00BF0837BD4680BD00BF00100240ED
:1007680080B59EB000AF786007F1640300221A607C
:100778005A609A60DA601A6107F110035422002166
:10078800184604F0F7FC7B681B68B3F1A04F3CD116
:100798004FF400433B614FF000537B6507F11003B2
:1007A800184603F035F90346002B01D0FFF7AEFFDA
:1007B800184BDB6C174A43F40053D364154BDB6CBE
:1007C80003F40053FB60FB68124BDB6C114A43F0E7
:1007D8000103D3640F4BDB6C03F00103BB60BB6800
:1007E80002237B660323BB660023FB6607F16403D1
:1007F80019464FF0904002F0BDF900220021122066
:1008080002F083F9122002F09AF900BF7837BD464A
:1008180080BD00BF0010024080B485B000AF786092
:100828007B681B68B3F1804F0BD1094B9B6D084A5D
:1008380043F001039365064B9B6D03F00103FB60D6
:10084800FB6800BF1437BD465DF8047B704700BFE6
:100858000010024080B485B000AF78607B681B68E8
:100868000A4A93420BD10A4B9B6D094A43F0020393
:100878009365074B9B6D03F00203FB60FB6800BFA9
:100888001437BD465DF8047B704700BF0004004084
:100898000010024080B58AB000AF786007F11403F9
:1008A80000221A605A609A60DA601A617B681B68D5
:1008B800B3F1804F1DD1224BDB6C214A43F0010379
:1008C800D3641F4BDB6C03F001033B613B690523D9
:1008D8007B610223BB610023FB6100233B62012390
:1008E8007B6207F1140319464FF0904002F042F979
:1008F80021E07B681B68134A93421CD1104BDB6CC8
:100908000F4A43F00103D3640D4BDB6C03F0010382
:10091800FB60FB6810237B610223BB610023FB6142
:1009280000233B6202237B6207F1140319464FF050
:10093800904002F01FF900BF2837BD4680BD00BFB8
:10094800001002400004004080B400AF00BFFDE783
:1009580080B400AF00BFFDE780B400AF00BFFDE783
:1009680080B400AF00BFFDE780B400AF00BFFDE773
:1009780080B400AF00BFBD465DF8047B704780B40B
:1009880000AF00BFBD465DF8047B704780B400AF80
:1009980000BFBD465DF8047B704780B500AF00F02E
:1009A8009BF800BF80BD000080B500AF024800F092
:1009B80039FE00BF80BD00BF2800002080B400AF12
:1009C800064BD3F88830054A43F47003C2F88830E0
:1009D80000BFBD465DF8047B704700BF00ED00E036
:1009E8000D488546FFF7EAFF0C480D490D4A0023DC
:1009F80002E0D458C4500433C4188C42F9D30A4ACC
:100A08000A4C002301E013600432A242FBD304F035
:100A1800B9FBFFF715FCFEE70000022000000020EC
:100A28000C000020045200080C00002034010020B3
:100A3800FEE780B582B000AF0023FB71032002F00F
:100A480059F80F2000F00EF80346002B02D00123BE
:100A5800FB7101E0FFF760FEFB7918460837BD46D9
:100A680080BD000080B584B000AF78600023FB73C0
:100A7800164B1B68002B22D0154B1A68134B1B68AA
:100A88004FF47A71B1FBF3F3B2FBF3F3184602F0BB
:100A980064F80346002B0FD17B680F2B09D800227E
:100AA80079684FF0FF3002F030F80A4A7B6813602B
:100AB80007E00123FB7304E00123FB7301E001233A
:100AC800FB73FB7B18461037BD4680BD080000202D
:100AD800000000200400002080B400AF054B1A6815
:100AE800054B1B681344034A136000BFBD465DF8FD
:100AF800047B7047300100200800002080B400AF5C
:100B0800034B1B681846BD465DF8047B704700BF61
:100B18003001002080B483B000AF786039607B6812
:100B28009B6823F47C123B681A437B689A6000BF79
:100B38000C37BD465DF8047B704780B483B000AFC6
:100B4800786039607B689B6823F0E0723B681A43E1
:100B58007B689A6000BF0C37BD465DF8047B704720
:100B680080B483B000AF78607B689B6803F0E07363
:100B780018460C37BD465DF8047B704780B487B0D3
:100B880000AFF860B9607A603B60FB6860331A4672
:100B9800BB689B0013447B617B691A68084B134050
:100BA8007A6802F0F8413A680A43134343F0004276
:100BB8007B691A6000BF1C37BD465DF8047B70472F
:100BC80000F0FF0380B485B000AF786039607B68BF
:100BD80060331A463B689B001344FB60FB681B6844
:100BE80003F0F84318461437BD465DF8047B704798
:100BF80080B487B000AFF860B9607A60FB68603392
:100C08001A46BB689B0013447B617B691B6823F011
:100C180000427B681A437B691A6000BF1C37BD46D7
:100C28005DF8047B704780B487B000AFF860B960A6
:100C38007A60FB6860331A46BB689B0013447B618B
:100C48007B691B6823F080727B681A437B691A6092
:100C580000BF1C37BD465DF8047B704780B487B081
:100C680000AFF860B9607A60FB6860331A46BB6809
:100C78009B0013447B617B691B6823F000727B68CF
:100C88001A437B691A6000BF1C37BD465DF8047BB8
:100C9800704780B483B000AF786039607B685B6967
:100CA80023F000423B681A437B685A6100BF0C3747
:100CB800BD465DF8047B704780B483B000AF7860B0
:100CC8007B68DB6803F44063002B01D1012300E05B
:100CD800002318460C37BD465DF8047B704780B486
:100CE80087B000AFF860B9607A60FB6830331A46A5
:100CF800BB681B0A9B0003F00C0313447B617B69F0
:100D08001A68BB6803F01F031F2101FA03F3DB43D2
:100D18001A407B689B0E03F01F01BB6803F01F039A
:100D280001FA03F31A437B691A6000BF1C37BD46FA
:100D38005DF8047B704780B483B000AF78607B684F
:100D4800DB6C03F4C073002B01D1012300E0002306
:100D580018460C37BD465DF8047B704780B487B0F1
:100D680000AFF860B9607A60FB6814331A46BB6854
:100D78005B0E9B0003F0040313447B617B691A68D4
:100D8800BB681B0D03F01F03072101FA03F3DB43C4
:100D98001A40BB681B0D03F01F03796801FA03F3BF
:100DA8001A437B691A6000BF1C37BD465DF8047B97
:100DB8007047000080B485B000AFF860B9607A6011
:100DC800FB68D3F8B020BB68C3F31203DB431A40B7
:100DD8007B6803F018030849D940BB680B40C3F38C
:100DE80012031A43FB68C3F8B02000BF1437BD468E
:100DF8005DF8047B704700BFFFFF070080B483B035
:100E080000AF78607B689B6803F01F0318460C37B7
:100E1800BD465DF8047B704780B483B000AF78604E
:100E28007B689B6803F4604318460C37BD465DF841
:100E3800047B704780B483B000AF78607B689B68A0
:100E480023F0204323F03F037A68936000BF0C37F8
:100E5800BD465DF8047B704780B483B000AF78600E
:100E68007B689B6803F00053B3F1005F01D1012355
:100E780000E0002318460C37BD465DF8047B704738
:100E880080B483B000AF78607B689B6823F0104320
:100E980023F03F0343F080527B689A6000BF0C3711
:100EA800BD465DF8047B704780B483B000AF7860BE
:100EB8007B689B6803F08053B3F1805F01D1012305
:100EC80000E0002318460C37BD465DF8047B7047E8
:100ED80080B483B000AF78607B689B6823F00043E0
:100EE80023F03F0343F001027B689A6000BF0C3790
:100EF800BD465DF8047B704780B483B000AF78606E
:100F08007B689B6823F0004323F03F0343F0020211
:100F18007B689A6000BF0C37BD465DF8047B70475C
:100F280080B483B000AF78607B689B6803F00103EE
:100F3800012B01D1012300E0002318460C37BD46E0
:100F48005DF8047B704780B483B000AF78607B683D
:100F58009B6803F00203022B01D1012300E0002368
:100F680018460C37BD465DF8047B704780B483B0E3
:100F780000AF78607B689B6823F0004323F03F0351
:100F880043F004027B689A6000BF0C37BD465DF8E9
:100F9800047B704780B483B000AF78607B689B683F
:100FA80003F00403042B01D1012300E000231846B9
:100FB8000C37BD465DF8047B704780B483B000AF42
:100FC80078607B689B6803F00803082B01D1012334
:100FD80000E0002318460C37BD465DF8047B7047D7
:100FE80090B589B000AF78600023FB770023FB60E1
:100FF8007B68002B01D10123A9E17B685B69002B89
:101008007B68DB6D002B09D17868FFF7A9FB7B684B
:1010180000221A667B68002283F858207B681B68C8
:101028001846FFF719FF0346002B04D07B681B689E
:101038001846FFF7FFFE7B681B681846FFF734FF6A
:101048000346002B15D17B681B681846FFF718FF6D
:101058009C4B1B689B099C4AA2FB03239B090133F9
:101068005B00FB6002E0FB68013BFB60FB68002B58
:10107800F9D17B681B681846FFF716FF0346002B5B
:101088000DD17B68DB6D43F010027B68DA657B6805
:101098001B6E43F001027B681A660123FB777B68AD
:1010A8001B681846FFF776FF78617B68DB6D03F0F5
:1010B8001003002B40F042817B69002B40F03E81F9
:1010C8007B68DB6D23F4817343F002027B68DA6589
:1010D8007B681B681846FFF723FF0346002B41D1A6
:1010E8007B681B68B3F1A04F04D07B681B68774A04
:1010F80093420FD14FF0A040FFF712FF0446734808
:10110800FFF70EFF03462343002B0CBF01230023E8
:10111800DBB212E06E48FFF703FF04466D48FFF7A5
:10112800FFFE03461C436C48FFF7FAFE03462343C1
:10113800002B0CBF01230023DBB2002B12D07B68ED
:101148001B68B3F1A04F04D07B681B685F4A9342C9
:1011580001D1624A00E0624A7B685B681946104622
:10116800FFF7D8FC7B685B7F5A037B68DB6B1A430D
:101178007B68DB681A437B689B681A437B6893F833
:1011880024301B041343BB617B6893F82430012B84
:1011980006D17B689B6A013B5B04BA691343BB6158
:1011A8007B68DB6A002B09D07B68DB6A03F4787202
:1011B8007B681B6B1343BA691343BB617B681B686D
:1011C800DA68484B13407A681268B9690B43D360F0
:1011D8007B681B681B6923F040617B685A6B7B68DE
:1011E8001B680A431A617B681B681846FFF7E5FE0F
:1011F80038617B69002B7FD13B69002B7CD17B68F0
:101208001B7F9A037B6893F838305B001343BB61FC
:101218007B681B68DB6823F4804323F002037A6849
:101228001268B9690B43D3607B681B69002B17D020
:101238007B681B681A697B681B6842F480321A61F4
:101248007B681B68D3F8C03023F47F5323F03F0337
:101258007A6811697A6812680B43C2F8C03013E0E3
:101268007B681B681A697B681B6822F480321A61E4
:101278007B681B68D3F8C0307A68126823F47F5300
:1012880023F03F03C2F8C0307B6893F84030012B4D
:101298002AD17B681B681B6923F4FF6323F00403CE
:1012A8007A68516C7A68926C11437A68D26C1143EF
:1012B8007A68126D0A431A437B681B6842F0010280
:1012C8001A6119E000000020632D3E05000100505E
:1012D80000040050000500500006005000030050B4
:1012E800000700500740F0FF7B681B681A697B689D
:1012F8001B6822F001021A617B685B69012B0CD123
:101308007B681B681B6B23F00F017B681B6A5A1EE6
:101318007B681B680A431A6307E07B681B681A6BC3
:101328007B681B6822F00F021A637B68DB6D23F071
:10133800030343F001027B68DA6507E07B68DB6D35
:1013480043F010027B68DA650123FB77FB7F1846C0
:101358002437BD4690BD00BF80B586B000AF786029
:101368007B681B68B3F1A04F04D07B681B68924A66
:10137800934201D1914B00E0914B1846FFF73EFD97
:1013880038617B681B681846FFF704FE0346002B8C
:1013980040F032817B6893F85830012B01D1022349
:1013A8002DE17B68012283F85820786800F0EEFF71
:1013B8000346FB75FB7D002B40F019817B68DB6DD4
:1013C80023F4706323F0010343F480727B68DA65C9
:1013D8007B681B68784A934209D07B681B68794A06
:1013E800934202D07B681B6803E0774B01E04FF023
:1013F800A0437A681268934202D03B69002B05D15A
:101408007B68DB6D23F480127B68DA657B68DB6DB3
:1014180003F48053002B06D07B681B6E23F0060272
:101428007B681A6602E07B6800221A667B681B6884
:101438001C221A607B68002283F858207B681B688E
:101448005A687B681B6822F01C025A607B689B699B
:10145800082B08D17B681B685A687B681B6842F0B8
:1014680008025A6008E07B681B685A687B681B683A
:1014780042F004025A6000BF7B68DB6B002B07D187
:101488007B681B685A687B681B6842F010025A60C8
:101498007B681B68484A934209D07B681B68494AA5
:1014A800934202D07B681B6803E0474B01E04FF092
:1014B800A0437A681268934208D03B69002B05D094
:1014C8003B69052B02D03B69092B3AD17B681B6825
:1014D800DB6803F00073002B2DD07B68DB6D23F4F1
:1014E800405343F480527B68DA657B689B69082B1C
:1014F80010D17B681B685A687B681B6822F0200241
:101508005A607B681B685A687B681B6842F0400217
:101518005A6010E07B681B685A687B681B6822F079
:1015280040025A607B681B685A687B681B6842F0F7
:1015380020025A6000BF7B681B681846FFF716FD3B
:101548005CE07B68DB6D43F480127B68DA657B685E
:101558001B68194A934209D07B681B68194A934251
:1015680002D07B681B6803E0174B01E04FF0A043F3
:10157800FB60FB68DB6803F00073002B3ED07B68E0
:10158800DB6D23F4405343F480527B68DA657B6853
:101598009B69082B1AD17B681B685A687B681B6893
:1015A80022F020025A607B681B685A687B681B68B7
:1015B80042F040025A6021E0000100500003005050
:1015C8000007005000050050000400507B681B68AD
:1015D8005A687B681B6822F040025A607B681B6867
:1015E8005A687B681B6842F020025A6006E07B68F4
:1015F800002283F8582001E00223FB75FB7D184682
:101608001837BD4680BD00BF80B483B000AF786096
:101618007B681B681B6C18460C37BD465DF8047B5D
:101628007047000080B58AB000AF786000237B6205
:101638007B681B681B68FB617B681B685B68BB6118
:101648007B681B68B3F1A04F04D07B681B688E4A87
:10165800934201D18D4B00E08D4B1846FFF7CEFB2E
:101668007861FB6903F00203002B17D0BB6903F014
:101678000203002B12D07B68DB6D03F01003002BF4
:1016880005D17B68DB6D43F400627B68DA657868B6
:1016980001F04EF87B681B6802221A60FB6903F0B0
:1016A8000403002B04D0BB6903F00403002B0BD107
:1016B800FB6903F00803002B00F09480BB6903F07A
:1016C8000803002B00F08E807B68DB6D03F01003AD
:1016D800002B05D17B68DB6D43F400727B68DA650B
:1016E8007B681B681846FFF7E7FA0346002B72D0A1
:1016F8007B681B68644A934209D07B681B68654A0B
:10170800934202D07B681B6803E0634B01E04FF013
:10171800A0437A681268934208D07B69002B05D0F1
:101728007B69052B02D07B69092B04D17B681B6878
:10173800DB683B6214E07B681B68534A934209D01C
:101748007B681B68534A934202D07B681B6803E09E
:10175800514B01E04FF0A0433B613B69DB683B62C2
:101768003B6A03F40053002B35D17B681B681B6868
:1017780003F00803082B2ED17B681B681846FFF777
:1017880009FC0346002B1AD17B681B685A687B68E2
:101798001B6822F00C025A607B68DB6D23F48072B0
:1017A8007B68DA657B68DB6D03F48053002B12D10C
:1017B8007B68DB6D43F001027B68DA650BE07B68D0
:1017C800DB6D43F010027B68DA657B681B6E43F0C3
:1017D80001027B681A667868FEF71AFD7B681B6849
:1017E8000C221A60FB6903F02003002B04D0BB69AC
:1017F80003F02003002B0BD1FB6903F04003002BFF
:1018080000F0B380BB6903F04003002B00F0AD800B
:101818007B68DB6D03F01003002B05D17B68DB6D63
:1018280043F400527B68DA657B681B681846FFF74B
:1018380082FAF8607B681B681846FFF73DFAB860C3
:101848007B681B68104A934209D07B681B68114A61
:10185800934202D07B681B6803E00F4B01E04FF016
:10186800A0437A681268934208D07B69002B05D0A0
:101878007B69062B02D07B69072B0FD17B681B681D
:10188800DB683B621FE000BF00010050000300500E
:101898000007005000050050000400507B681B68DA
:1018A8008B4A934209D07B681B688A4A934202D0CC
:1018B8007B681B6803E0884B01E04FF0A0433B6165
:1018C8003B69DB683B62FB68002B47D03B6A03F04F
:1018D8000073002B07D0BB68002B3FD03B6A03F492
:1018E8000053002B3AD17B681B681B6803F0400348
:1018F800402B33D13B6A03F40013002B2ED17B68B5
:101908001B681846FFF759FB0346002B1AD17B6862
:101918001B685A687B681B6822F060025A607B6803
:10192800DB6D23F480527B68DA657B68DB6D03F43A
:101938008073002B12D17B68DB6D43F001027B685A
:10194800DA650BE07B68DB6D43F010027B68DA65D3
:101958007B681B6E43F001027B681A66786800F0AA
:10196800BFFE7B681B6860221A60FB6903F0800376
:10197800002B11D0BB6903F08003002B0CD07B68CF
:10198800DB6D43F480327B68DA65786800F0AAF88A
:101998007B681B6880221A60FB6903F48073002B44
:1019A80012D0BB6903F48073002B0DD07B68DB6D0C
:1019B80043F400327B68DA65786800F0A5FE7B683E
:1019C8001B684FF480721A60FB6903F40073002BE4
:1019D80012D0BB6903F40073002B0DD07B68DB6D5C
:1019E80043F480227B68DA65786800F097FE7B68AC
:1019F8001B684FF400721A60FB6903F01003002B98
:101A080043D0BB6903F01003002B3ED07B68DB6B2F
:101A1800002B02D101237B6221E07B69002B15D0CA
:101A28007B681B68B3F1A04F04D07B681B68284A09
:101A3800934201D1294B00E0294B1846FFF7ECF9F6
:101A48000346002B0BD001237B6208E07B681B68F0
:101A5800DB6803F00103002B01D001237B627B6A62
:101A6800012B0ED17B68DB6D43F480627B68DA65FD
:101A78007B681B6E43F002027B681A66786800F088
:101A88003BF87B681B6810221A60FB6903F48063CB
:101A9800002B18D0BB6903F48063002B13D07B683C
:101AA800DB6D43F480427B68DA657B681B6E43F02C
:101AB80008027B681A667B681B684FF480621A60AC
:101AC800786800F017FE00BF2837BD4680BD00BF0C
:101AD80000010050000500500004005000030050B1
:101AE8000007005080B483B000AF786000BF0C37A7
:101AF800BD465DF8047B704780B483B000AF786062
:101B080000BF0C37BD465DF8047B704780B5B6B0A2
:101B180000AF78603960002387F8D7300023FB6076
:101B28007B6893F85830012B02D1022300F013BCD4
:101B38007B68012283F858207B681B681846FFF7EA
:101B480029FA0346002B40F0F3837B6818683B684A
:101B580059683B681B681A46FFF7C1F87B681B6821
:101B68001846FFF717FAC7F8D0007B681B681846B5
:101B7800FFF723FAC7F8CC00D7F8D030002B40F095
:101B8800D981D7F8CC30002B40F0D4813B689B68D2
:101B9800B3F1004F0FD17B6818683B681B680022BF
:101BA8001946FFF7DBF87B681B684FF000411846C1
:101BB800FFF76FF80EE07B6818683B6819683B68A8
:101BC8009B681A46FFF7CAF87B681B68002118460D
:101BD800FFF75FF83B685A697B681B68DB68DB08BE
:101BE80003F003035B0002FA03F3C7F8C8303B684D
:101BF8001B69042B22D07B6818683B6819693B680D
:101C08001A68D7F8C830FEF7B9FF7B6818683B68D0
:101C180019693B689B691A46FFF705F87B681868DD
:101C28003B6819693B681B7F012B02D14FF0007399
:101C380000E000231A46FFF711F87BE17B681B6878
:101C480000211846FEF7BEFF0346C3F31203002B1C
:101C58000AD17B681B6800211846FEF7B3FF0346CC
:101C68009B0E03F01F021EE07B681B6800211846CC
:101C7800FEF7A8FF0346C7F8BC30D7F8BC3093FA84
:101C8800A3F3C7F8C030D7F8C030C7F8B830D7F8D2
:101C9800B830002B01D1202304E0D7F8B830B3FACC
:101CA80083F3DBB21A463B681B68C3F31203002BAD
:101CB80005D13B681B689B0E03F01F0318E03B68C7
:101CC8001B68C7F8B030D7F8B03093FAA3F3C7F859
:101CD800AC30D7F8AC30C7F8B430D7F8B430002BF4
:101CE80001D1202304E0D7F8B430B3FA83F3DBB290
:101CF8009A4206D17B681B68002200211846FEF72D
:101D080077FF7B681B6801211846FEF75BFF0346D7
:101D1800C3F31203002B0AD17B681B680121184604
:101D2800FEF750FF03469B0E03F01F021EE07B6880
:101D38001B6801211846FEF745FF0346C7F8A43083
:101D4800D7F8A43093FAA3F3C7F8A030D7F8A03097
:101D5800C7F8A830D7F8A830002B01D1202304E019
:101D6800D7F8A830B3FA83F3DBB21A463B681B688E
:101D7800C3F31203002B05D13B681B689B0E03F0CD
:101D88001F0318E03B681B68C7F89830D7F89830ED
:101D980093FAA3F3C7F89430D7F89430C7F89C3077
:101DA800D7F89C30002B01D1202304E0D7F89C30D1
:101DB800B3FA83F3DBB29A4206D17B681B68002230
:101DC80001211846FEF714FF7B681B68022118469C
:101DD800FEF7F8FE0346C3F31203002B0AD17B6813
:101DE8001B6802211846FEF7EDFE03469B0E03F022
:101DF8001F021EE07B681B6802211846FEF7E2FE00
:101E08000346C7F88C30D7F88C3093FAA3F3C7F899
:101E18008830D7F88830C7F89030D7F89030002B42
:101E280001D1202304E0D7F89030B3FA83F3DBB272
:101E38001A463B681B68C3F31203002B05D13B68A5
:101E48001B689B0E03F01F0316E03B681B68C7F86E
:101E58008030D7F8803093FAA3F3FB67FB6FC7F89D
:101E68008430D7F88430002B01D1202304E0D7F840
:101E78008430B3FA83F3DBB29A4206D17B681B68DD
:101E8800002202211846FEF7B3FE7B681B68032177
:101E98001846FEF797FE0346C3F31203002B0AD138
:101EA8007B681B6803211846FEF78CFE03469B0ED1
:101EB80003F01F0217E07B681B6803211846FEF732
:101EC80081FE03467B677B6F93FAA3F33B673B6F07
:101ED800BB67BB6F002B01D1202303E0BB6FB3FAB4
:101EE80083F3DBB21A463B681B68C3F31203002B6B
:101EF80005D13B681B689B0E03F01F0311E03B688C
:101F08001B68BB66BB6E93FAA3F37B667B6EFB66AE
:101F1800FB6E002B01D1202303E0FB6EB3FA83F3A1
:101F2800DBB29A4206D17B681B680022032118465F
:101F3800FEF75EFE7B681B681846FEF7F1FF034656
:101F4800002B40F03D817B6818683B6819683B6846
:101F5800DB681A46FEF72EFF3B68DB68A24A93420D
:101F680040F02E817B6818683B681B68C3F3120336
:101F7800002B0BD13B681B689B0E013303F01F033A
:101F8800092B94BF01230023DBB219E03B681B68CF
:101F9800FB65FB6D93FAA3F3BB65BB6D3B663B6EBC
:101FA800002B01D1202303E03B6EB3FA83F3DBB2AD
:101FB800013303F01F03092B94BF01230023DBB275
:101FC800002B79D03B681B68C3F31203002B07D1A1
:101FD8003B681B689B0E01339B0603F0F84215E033
:101FE8003B681B683B653B6D93FAA3F3FB64FB6C92
:101FF8007B657B6D002B01D1202303E07B6DB3FA59
:1020080083F3DBB201339B0603F0F8423B681B689D
:10201800C3F31203002B09D13B681B689B0E0133E5
:1020280003F01F03012101FA03F317E03B681B6863
:102038007B647B6C93FAA3F33B643B6CBB64BB6C23
:10204800002B01D1202303E0BB6CB3FA83F3DBB28E
:10205800013303F01F03012101FA03F342EA0301EC
:102068003B681B68C3F31203002B0AD13B681B684B
:102078009B0E013303F01F0213465B0013441B053C
:1020880018E03B681B68BB63BB6B93FAA3F37B63E5
:102098007B6BFB63FB6B002B01D1202303E0FB6B05
:1020A800B3FA83F3DBB2013303F01F0213465B007C
:1020B80013441B050B437EE03B681B68C3F3120304
:1020C800002B07D13B681B689B0E01339B0603F06E
:1020D800F84215E03B681B68FB62FB6A93FAA3F3BE
:1020E800BB62BB6A3B633B6B002B01D1202303E03F
:1020F8003B6BB3FA83F3DBB201339B0603F0F84280
:102108003B681B68C3F31203002B09D13B681B68AB
:102118009B0E013303F01F03012101FA03F317E0BB
:102128003B681B683B623B6A93FAA3F3FB61FB695C
:102138007B627B6A002B01D1202303E07B6AB3FA20
:1021480083F3DBB2013303F01F03012101FA03F328
:1021580042EA03013B681B68C3F31203002B0DD14D
:102168003B681B689B0E013303F01F0213465B009C
:1021780013441E3B1B0543F000731BE03B681B68C0
:102188007B617B6993FAA3F33B613B69BB61BB69E4
:10219800002B01D1202303E0BB69B3FA83F3DBB240
:1021A800013303F01F0213465B0013441E3B1B055B
:1021B80043F000730B433A6892681946FEF7CEFD68
:1021C8003B681A68094B1340002B00F0BE807B68FF
:1021D8001B68B3F1A04F04D07B681B68044A934284
:1021E8000AD1044B09E000BF00007F4000000880CE
:1021F8000001005000030050594B1846FEF7B0FC90
:10220800C7F8C4003B681B68564A934204D03B6831
:102218001B68554A93423AD1D7F8C43003F40003F7
:10222800002B34D17B681B68B3F1A04F05D07B68C5
:102238001B684E4A934240F085807B681B68B3F167
:10224800A04F04D07B681B68494A934201D1494A90
:1022580000E0434AD7F8C43043F400031946104657
:10226800FEF76BFC444B1B689B09444AA2FB032303
:102278009B095A1C13465B0013449B00FB6002E059
:10228800FB68013BFB60FB68002BF9D15AE03B6817
:102298001B683B4A934225D1D7F8C43003F08073BA
:1022A800002B1FD17B681B68314A93424CD07B6856
:1022B8001B68344A934247D07B681B68B3F1A04F30
:1022C80004D07B681B682A4A934201D1294A00E05E
:1022D800234AD7F8C43043F0807319461046FEF7F6
:1022E8002CFC31E03B681B68274A93422DD1D7F874
:1022F800C43003F48003002B27D17B681B681C4A79
:10230800934222D07B681B68B3F1A04F04D07B684E
:102318001B68174A934201D1164A00E0104AD7F8C1
:10232800C43043F4800319461046FEF706FC0CE05F
:102338007B68DB6D43F020027B68DA65012387F850
:10234800D73002E000BF00E000BF7B68002283F8BE
:10235800582097F8D7301846D837BD4680BD00BFFB
:1023680000070050000021C31000C0900006005074
:10237800000100500003005000000020632D3E05BE
:10238800000052C700050050000084CB80B584B01F
:1023980000AF78600023BB607B681B681846FEF7B7
:1023A800BFFD0346002B76D17B681B689A683C4BBF
:1023B8001340002B0DD07B68DB6D43F010027B6867
:1023C800DA657B681B6E43F001027B681A6601239D
:1023D80062E07B681B681846FEF77AFD7B681B681D
:1023E800B3F1A04F04D07B681B682E4A934201D1F9
:1023F8002D4B00E02D4B1846FEF7B2FB034603F4C5
:102408000003002B13D02A4B1B689B09294AA2FB07
:1024180003239B095A1C13465B0013449B00BB60B3
:1024280002E0BB68013BBB60BB68002BF9D1FEF73B
:1024380065FBF86028E07B681B681846FEF770FDAE
:102448000346002B04D17B681B681846FEF740FD45
:10245800FEF754FB0246FB68D31A022B14D97B689B
:102468001B681B6803F00103012B0DD07B68DB6D33
:1024780043F010027B68DA657B681B6E43F001024B
:102488007B681A66012307E07B681B681B6803F0FA
:102498000103012BCFD1002318461037BD4680BD5C
:1024A8003F0000800001005000030050000700506A
:1024B80000000020632D3E0580B584B000AF786031
:1024C8007B681B681846FEF73EFDF8607B681B6852
:1024D8001846FEF725FD0346002B47D0FB68002B66
:1024E80044D17B681B689B6803F00D03012B0CD15A
:1024F8007B681B681846FEF7FFFC7B681B68032295
:102508001A60FEF7FBFAB86029E07B68DB6D43F0E0
:1025180010027B68DA657B681B6E43F001027B68FA
:102528001A66012323E0FEF7E9FA0246BB68D31ACC
:10253800022B14D97B681B689B6803F00103002BEE
:102548000DD07B68DB6D43F010027B68DA657B6831
:102558001B6E43F001027B681A66012307E07B6863
:102568001B689B6803F00103002BDCD1002318468D
:102578001037BD4680BD80B483B000AF78607B68FB
:102588009B6803F00103012B01D1012300E0002324
:1025980018460C37BD465DF8047B704780B483B09D
:1025A80000AF786039607B689B6823F0404323F074
:1025B8003F033A6802F08042134343F000427B68CD
:1025C8009A6000BF0C37BD465DF8047B704780B445
:1025D80083B000AF78607B689B6803F00043B3F179
:1025E800004F01D1012300E0002318460C37BD46F7
:1025F8005DF8047B704780B483B000AF78607B6877
:102608009B6803F00403042B01D1012300E000239D
:1026180018460C37BD465DF8047B704780B584B01A
:1026280000AF786039600023BB607B6893F858304E
:10263800012B01D102234DE07B68012283F8582049
:102648007868FFF739FF0346FB73FB7B002B36D115
:102658007B68DB6D23F4885323F0020343F0020206
:102668007B68DA657B681B6839681846FFF796FF50
:1026780014E0BB680133BB60BB68184A93420DD9AC
:102688007B68DB6D23F0120343F010027B68DA6588
:102698007B68002283F8582001231BE07B681B68B5
:1026A8001846FFF794FF0346002BE2D17B68DB6DE9
:1026B80023F0030343F001027B68DA6505E07B68D9
:1026C800DB6D43F010027B68DA657B68002283F8D3
:1026D8005820FB7B18461037BD4680BD01DE04003C
:1026E80080B483B000AF786000BF0C37BD465DF89A
:1026F800047B704780B483B000AF786000BF0C37AC
:10270800BD465DF8047B704780B483B000AF786045
:1027180000BF0C37BD465DF8047B704780B483B0BA
:1027280000AF786000BF0C37BD465DF8047B70478A
:1027380080B483B000AF786000BF0C37BD465DF849
:10274800047B704790B5A1B000AF78603960002372
:1027580087F87F307B6893F85830012B01D102232A
:10276800E7E07B68012283F8582000237B6600237A
:10277800BB667B681B68B3F1A04F02D16F4BBB608F
:1027880009E07B681B686E4A934202D16D4BBB60BF
:1027980001E00023BB60BB68002B0BD17B68DB6DBD
:1027A80043F020027B68DA657B68002283F85820B2
:1027B8000123BEE0BB681846FFF71DFFB8677B68BA
:1027C8001B681846FFF717FF0346002B40F0A08050
:1027D800BB6F002B40F09C807B681B68B3F1A04F57
:1027E80004D07B681B68554A934201D1564B00E0E0
:1027F800564B7B673B681B68002B4BD07B6F9B68F5
:1028080023F460423B6859687B6893F838305B036F
:102818000B431A437B6F9A607B681B68B3F1A04F28
:1028280004D07B681B68454A93420FD14FF0A04003
:10283800FFF7A1FE04464148FFF79DFE03462343E8
:10284800002B0CBF01230023DBB212E03C48FFF74A
:1028580092FE04463B48FFF78EFE03461C433C4865
:10286800FFF789FE03462343002B0CBF01230023F7
:10287800DBB2002B56D07B6F9B6823F4716323F087
:102888000F033A6811683A6892680A431A437B6FE3
:102898009A6047E07B6F9B6823F460427B6F9A6085
:1028A8007B681B68B3F1A04F04D07B681B68234A80
:1028B80093420FD14FF0A040FFF75DFE04461F483A
:1028C800FFF759FE03462343002B0CBF01230023C7
:1028D800DBB212E01A48FFF74EFE04461948FFF72C
:1028E8004AFE03461C431A48FFF745FE03462343A6
:1028F800002B0CBF01230023DBB2002B12D07B6F0F
:102908009B6823F4716323F00F037A6F936009E0E7
:102918007B68DB6D43F020027B68DA65012387F86A
:102928007F3000E000BF7B68002283F8582097F8CA
:102938007F3018468437BD4690BD00BF0001005067
:10294800000400500005005000030050000700502C
:102958000006005080B485B000AF78607B6803F053
:102968000703FB600C4BDB68BB60BA684FF6FF03DC
:102978001340BB60FB681A02BB68134343F0BF6394
:1029880043F40033BB60044ABB68D36000BF14370C
:10299800BD465DF8047B704700ED00E080B400AFF1
:1029A800044BDB681B0A03F007031846BD465DF8B5
:1029B800047B704700ED00E080B483B000AF0346AD
:1029C800FB7197F90730002B0BDBFB7903F01F0233
:1029D800074997F907305B09012000FA02F241F82C
:1029E800232000BF0C37BD465DF8047B704700BF4D
:1029F80000E100E080B483B000AF03463960FB71AA
:102A080097F90730002B0ADB3B68DAB20C4997F9D3
:102A180007301201D2B20B4483F800230AE03B6866
:102A2800DAB20849FB7903F00F03043B1201D2B272
:102A38000B441A7600BF0C37BD465DF8047B70471F
:102A480000E100E000ED00E080B489B000AFF8607C
:102A5800B9607A60FB6803F00703FB61FB69C3F1A7
:102A68000703042B28BF0423BB61FB690433062B2F
:102A780002D9FB69033B00E000237B614FF0FF3282
:102A8800BB6902FA03F3DA43BB681A407B699A40D0
:102A98004FF0FF317B6901FA03F3D9437B680B40A0
:102AA800134318462437BD465DF8047B7047000081
:102AB80080B582B000AF78607B68013BB3F1807F5E
:102AC80001D301230FE00A4A7B68013B53600F21C1
:102AD8004FF0FF30FFF78EFF054B00229A60044B42
:102AE80007221A60002318460837BD4680BD00BF7C
:102AF80010E000E080B582B000AF78607868FFF73A
:102B080029FF00BF0837BD4680BD80B586B000AF3D
:102B18000346B9607A60FB73FFF740FF78617A6813
:102B2800B9687869FFF790FF024697F90F301146A8
:102B38001846FFF75FFF00BF1837BD4680BD80B558
:102B480082B000AF0346FB7197F907301846FFF7CC
:102B580033FF00BF0837BD4680BD80B582B000AFE7
:102B680078607868FFF7A4FF034618460837BD4623
:102B780080BD000080B487B000AF78603960002362
:102B88007B6164E13B681A6801217B6901FA03F300
:102B98001340FB60FB68002B00F056813B685B68C4
:102BA80003F00303012B05D03B685B6803F00303C4
:102BB800022B30D17B689B683B617B695B000322F9
:102BC80002FA03F3DB433A6913403B613B68DA6876
:102BD8007B695B0002FA03F33A6913433B617B6844
:102BE8003A699A607B685B683B6101227B6902FAFB
:102BF80003F3DB433A6913403B613B685B681B099D
:102C080003F001027B6902FA03F33A6913433B615B
:102C18007B683A695A603B685B6803F00303032BDF
:102C280009D13B685B6803F00303032B1BD13B68A6
:102C38009B68012B17D07B68DB683B617B695B0075
:102C4800032202FA03F3DB433A6913403B613B6812
:102C58009A687B695B0002FA03F33A6913433B61A4
:102C68007B683A69DA603B685B6803F00303022B10
:102C780023D17B69DA087B68083253F822303B613C
:102C88007B6903F007039B000F2202FA03F3DB437F
:102C98003A6913403B613B681A697B6903F0070393
:102CA8009B0002FA03F33A6913433B617B69DA0834
:102CB8007B680832396943F822107B681B683B61DE
:102CC8007B695B00032202FA03F3DB433A69134092
:102CD8003B613B685B6803F003027B695B0002FAB7
:102CE80003F33A6913433B617B683A691A603B68AE
:102CF8005B6803F44033002B00F0A6805B4B1B6E2F
:102D08005A4A43F001031366584B1B6E03F0010344
:102D1800BB60BB68564A7B699B08023352F8233074
:102D28003B617B6903F003039B000F2202FA03F364
:102D3800DB433A6913403B617B68B3F1904F1FD086
:102D48007B684C4A934219D07B684B4A934213D014
:102D58007B684A4A93420DD07B68494A934207D020
:102D68007B68484A934201D105230AE0062308E01C
:102D7800042306E0032304E0022302E0012300E029
:102D880000237A6902F00302920093403A691343E0
:102D98003B6137497B699B0802333A6941F8232034
:102DA800394B9B683B61FB68DB433A6913403B61E5
:102DB8003B685B6803F48013002B03D03A69FB6817
:102DC80013433B61304A3B6993602F4BDB683B619F
:102DD800FB68DB433A6913403B613B685B6803F47B
:102DE8000013002B03D03A69FB6813433B61264A62
:102DF8003B69D360244B5B683B61FB68DB433A6902
:102E080013403B613B685B6803F40033002B03D03D
:102E18003A69FB6813433B611B4A3B6953601A4B91
:102E28001B683B61FB68DB433A6913403B613B68C5
:102E38005B6803F48033002B03D03A69FB681343C3
:102E48003B61114A3B6913607B6901337B613B68D5
:102E58001A687B6922FA03F3002B7FF493AE00BF54
:102E680000BF1C37BD465DF8047B70470010024068
:102E7800000001400004004800080048000C004819
:102E880000100048001400480004014080B485B0D8
:102E980000AF78600B467B807B681A697B8813409B
:102EA800002B02D00123FB7301E00023FB73FB7BA3
:102EB80018461437BD465DF8047B704780B485B06A
:102EC80000AF78607B68002B41D14B4B1B6803F443
:102ED800C063B3F5806F31D1474BD3F88030464A91
:102EE80023F48073C2F88030434B1B6823F4C0631B
:102EF800414A43F400731360404B1B68322202FBC3
:102F080003F33F4AA2FB03239B0C0133FB6002E05F
:102F1800FB68013BFB60384B5B6903F48063B3F5E6
:102F2800806F02D1FB68002BF2D1334B5B6903F44D
:102F38008063B3F5806F58D1032357E02E4BD3F845
:102F480080302D4A23F48073C2F880304DE07B68CE
:102F5800B3F5007F41D1284B1B6803F4C063B3F578
:102F6800806F31D1244BD3F88030234A43F48073E7
:102F7800C2F88030204B1B6823F4C0631E4A43F418
:102F8800007313601D4B1B68322202FB03F31C4ABB
:102F9800A2FB03239B0C0133FB6002E0FB68013BAF
:102FA800FB60154B5B6903F48063B3F5806F02D156
:102FB800FB68002BF2D1104B5B6903F48063B3F517
:102FC800806F12D1032311E00B4BD3F880300A4AEB
:102FD80043F48073C2F8803007E0074B1B6823F482
:102FE800C063054A43F4806313600023184614370E
:102FF800BD465DF8047B704700700040000000206B
:1030080083DE1B4380B400AF054B9B68044A43F43E
:103018008043936000BFBD465DF8047B704700BFE6
:103028000070004080B588B000AF78607B68002BE6
:1030380001D10123FEE27B681B6803F00103002B2A
:1030480075D0974B9B6803F00C03BB61944BDB680E
:1030580003F003037B61BB690C2B02D17B69032B53
:1030680002D0BB69082B0BD18D4B1B6803F40033CE
:10307800002B5BD07B685B68002B57D10123D9E21A
:103088007B685B68B3F5803F06D1854B1B68844A33
:1030980043F4803313601DE07B685B68B3F5A02FB1
:1030A8000CD17F4B1B687E4A43F4802313607C4B12
:1030B8001B687B4A43F4803313600BE0784B1B6832
:1030C800774A23F480331360754B1B68744A23F4E2
:1030D800802313607B685B68002B13D0FDF70EFD1F
:1030E800386108E0FDF70AFD02463B69D31A642BF4
:1030F80001D903239EE26A4B1B6803F40033002BBB
:10310800F0D014E0FDF7FAFC386108E0FDF7F6FCB2
:1031180002463B69D31A642B01D903238AE2604B28
:103128001B6803F40033002BF0D100E000BF7B687C
:103138001B6803F00203002B75D0594B9B6803F002
:103148000C03BB61564BDB6803F003037B61BB696F
:103158000C2B02D17B69022B02D0BB69042B1FD137
:103168004F4B1B6803F48063002B05D07B68DB683A
:10317800002B01D101235DE2494B5B6823F0FE423D
:103188007B681B691B06464913434B60454B1B680C
:103198001846FDF767FC0346002B43D0012349E29C
:1031A8007B68DB68002B23D03D4B1B683C4A43F40B
:1031B80080731360FDF7A2FC386108E0FDF79EFC00
:1031C80002463B69D31A022B01D9032332E2344B5E
:1031D8001B6803F48063002BF0D0314B5B6823F04D
:1031E800FE427B681B691B062D4913434B601AE09E
:1031F8002B4B1B682A4A23F480731360FDF77EFC6F
:10320800386108E0FDF77AFC02463B69D31A022BC5
:1032180001D903230EE2224B1B6803F48063002BC1
:10322800F0D100E000BF7B681B6803F00803002BA7
:1032380041D07B685B69002B1CD0194BD3F89430C4
:10324800174A43F00103C2F89430FDF757FC386180
:1032580008E0FDF753FC02463B69D31A022B01D95B
:103268000323E7E10E4BD3F8943003F00203002B5D
:10327800EFD020E00A4BD3F89430094A23F0010339
:10328800C2F89430FDF73AFC38610DE0FDF736FCE2
:1032980002463B69D31A022B06D90323CAE100BFB1
:1032A80000100240040000208C4BD3F8943003F047
:1032B8000203002BEAD17B681B6803F00403002B90
:1032C80000F0A6800023FB77844B9B6D03F08053AE
:1032D800002B01D1012300E00023002B0DD07F4BF0
:1032E8009B6D7E4A43F0805393657C4B9B6D03F046
:1032F8008053FB60FB680123FB77794B1B6803F461
:103308008073002B18D1764B1B68754A43F4807381
:103318001360FDF7F3FB386108E0FDF7EFFB0246A9
:103328003B69D31A022B01D9032383E16C4B1B6839
:1033380003F48073002BF0D07B689B68012B08D1C5
:10334800664BD3F89030654A43F00103C2F89030D9
:1033580024E07B689B68052B10D1604BD3F8903034
:103368005E4A43F00403C2F890305C4BD3F89030C7
:103378005A4A43F00103C2F890300FE0574BD3F894
:103388009030564A23F00103C2F89030534BD3F8DB
:103398009030524A23F00403C2F890307B689B684F
:1033A800002B16D0FDF7AAFB38610AE0FDF7A6FB53
:1033B80002463B69D31A41F28832934201D903236A
:1033C80038E1464BD3F8903003F00203002BEDD0E0
:1033D80015E0FDF793FB38610AE0FDF78FFB024625
:1033E8003B69D31A41F28832934201D9032321E180
:1033F8003A4BD3F8903003F00203002BEDD1FB7F5A
:10340800012B05D1354B9B6D344A23F080539365CE
:103418007B681B6803F02003002B3CD07B689B690A
:10342800002B1CD02D4BD3F898302C4A43F00103C5
:10343800C2F89830FDF762FB386108E0FDF75EFBE3
:1034480002463B69D31A022B01D90323F2E0234B2E
:10345800D3F8983003F00203002BEFD01BE01F4B8A
:10346800D3F898301D4A23F00103C2F89830FDF7CD
:1034780045FB386108E0FDF741FB02463B69D31A7A
:10348800022B01D90323D5E0144BD3F8983003F06D
:103498000203002BEFD17B68DB69002B00F0C980A9
:1034A8000E4B9B6803F00C030C2B00F083807B68A9
:1034B800DB69022B5ED1094B1B68084A23F0807335
:1034C8001360FDF71BFB38610CE0FDF717FB0246A4
:1034D8003B69D31A022B05D90323ABE00010024045
:1034E80000700040554B1B6803F00073002BECD1B3
:1034F800524BDA68524B13407A68116A7A68526AFA
:10350800013A120111437A68926A120211437A68E9
:10351800126B5208013A520511437A68526B5208ED
:10352800013A520611437A68D26AD2060A434349DD
:103538001343CB60414B1B68404A43F080731360D0
:103548003E4BDB683D4A43F08073D360FDF7D6FA03
:10355800386108E0FDF7D2FA02463B69D31A022B1C
:1035680001D9032366E0354B1B6803F00073002B79
:10357800F0D05EE0314B1B68304A23F08073136053
:10358800FDF7BCFA386108E0FDF7B8FA02463B6976
:10359800D31A022B01D903234CE0284B1B6803F0F4
:1035A8000073002BF0D1254BDA682449254B1340D2
:1035B800CB603EE07B68DB69012B01D1012339E058
:1035C8001E4BDB687B617B6903F003027B681B6A27
:1035D8009A422CD17B6903F0F0027B685B6A013B5D
:1035E8001B019A4223D17B6903F4FE427B689B6AE4
:1035F8001B029A421BD17B6903F078427B68DB6A25
:10360800DB069A4213D17B6903F4C0027B681B6B0B
:103618005B08013B5B059A4209D17B6903F0C062F4
:103628007B685B6B5B08013B5B069A4201D0012318
:1036380000E0002318462037BD4680BD0010024038
:103648000C809F01FCFFEEFE80B586B000AF78606D
:10365800396000237B617B68002B01D101231EE1C7
:10366800914B1B6803F00F033A689A4210D98E4BAE
:103678001B6823F00F028C493B6813430B608A4B8D
:103688001B6803F00F033A689A4201D0012306E150
:103698007B681B6803F00103002B73D07B685B68B1
:1036A800032B29D1814B1B6803F00073002B01D138
:1036B8000123F4E000F066F938613B697C4A9342E3
:1036C8003FD97A4B9B6803F0F003002B09D07B6845
:1036D8001B6803F00203002B33D07B689B68002B28
:1036E8002FD1724B9B6823F0F003704A43F080039C
:1036F800936080237B6124E07B685B68022B07D1A1
:103708006A4B1B6803F40033002B09D10123C6E080
:10371800664B1B6803F48063002B01D10123BEE0D4
:1037280000F0CEF838613B69614A934209D95F4B92
:103738009B6823F0F0035D4A43F080039360802385
:103748007B615A4B9B6823F003027B685B6857498F
:1037580013438B60FDF7D2F9F8600AE0FDF7CEF964
:103768000246FB68D31A41F28832934201D90323F7
:1037780095E04E4B9B6803F00C027B685B689B00EE
:103788009A42EBD17B681B6803F00203002B23D01D
:103798007B681B6803F00403002B05D0434B9B6830
:1037A800424A43F4E06393607B681B6803F00803B4
:1037B800002B07D03D4B9B6823F47C533B4A43F4D2
:1037C800E0639360394B9B6823F0F0027B689B6849
:1037D800364913438B6008E07B69802B05D1334B56
:1037E8009B68324A23F0F00393602F4B1B6803F069
:1037F8000F033A689A421DD22B4B1B6823F00F0225
:1038080029493B6813430B60FDF778F9F8600AE033
:10381800FDF774F90246FB68D31A41F288329342E5
:1038280001D903233BE0204B1B6803F00F033A68E0
:103838009A42EDD17B681B6803F00403002B08D083
:103848001A4B9B6823F4E0627B68DB6817491343D3
:103858008B607B681B6803F00803002B09D0134BAF
:103868009B6823F460527B681B69DB000F49134394
:103878008B6000F025F802460C4B9B681B0903F08F
:103888000F030C49CB5C03F01F0322FA03F30A4A27
:1038980013600A4B1B681846FDF7E4F80346184600
:1038A8001837BD4680BD00BF00200240001002400E
:1038B80000B4C404EC5100080000002004000020FB
:1038C80080B487B000AF2C4B9B6803F00C03042B2B
:1038D80002D12A4B3B6147E0274B9B6803F00C035E
:1038E800082B02D1264B3B613EE0234B9B6803F03B
:1038F8000C030C2B36D1204BDB6803F00303FB6071
:103908001D4BDB681B0903F00F030133BB60FB6829
:10391800032B0CD11A4ABB68B2FBF3F3164AD268E0
:10392800120A02F07F0202FB03F37B610CE0134AE8
:10393800BB68B2FBF3F3104AD268120A02F07F02A6
:1039480002FB03F37B6100BF0B4BDB685B0E03F0EC
:10395800030301335B007B607A697B68B2FBF3F396
:103968003B6101E000233B613B6918461C37BD46BB
:103978005DF8047B704700BF001002400024F4008B
:1039880000127A0080B487B000AF1E4BDB6803F0EA
:1039980003033B611B4BDB681B0903F00F03013377
:1039A800FB603B69032B0CD1174AFB68B2FBF3F3AE
:1039B800144AD268120A02F07F0202FB03F37B6109
:1039C8000CE0124AFB68B2FBF3F30E4AD268120A03
:1039D80002F07F0202FB03F37B6100BF094BDB6847
:1039E8005B0E03F0030301335B00BB607A69BB68BD
:1039F800B2FBF3F37B607B6818461C37BD465DF865
:103A0800047B70470010024000127A000024F40082
:103A180080B586B000AF78600023FB740023BB74C8
:103A28007B681B6803F40023002B00F098800023B8
:103A38007B74434B9B6D03F08053002B0DD1404B9F
:103A48009B6D3F4A43F0805393653D4B9B6D03F05C
:103A58008053BB60BB6801237B743A4B1B68394AAF
:103A680043F480731360FDF749F8F86009E0FDF747
:103A780045F80246FB68D31A022B02D90323FB74CC
:103A880005E0304B1B6803F48073002BEFD0FB7C00
:103A9800002B59D12A4BD3F8903003F440737B6143
:103AA8007B69002B1ED07B681B6D7A699A4219D0FE
:103AB800234BD3F8903023F440737B61204BD3F829
:103AC80090301F4A43F48033C2F890301C4BD3F82F
:103AD80090301B4A23F48033C2F89030184A7B692F
:103AE800C2F890307B6903F00103002B16D0FDF774
:103AF80005F8F8600BE0FDF701F80246FB68D31AF9
:103B080041F28832934202D90323FB7406E00C4B3E
:103B1800D3F8903003F00203002BECD0FB7C002B91
:103B28000BD1074BD3F8903023F440727B681B6DA0
:103B380003491343C1F8903008E0FB7CBB7405E0EF
:103B48000010024000700040FB7CBB747B7C012BA2
:103B580005D1A74B9B6DA64A23F0805393657B68DC
:103B68001B6803F00103002B0AD0A14BD3F888305F
:103B780023F003027B685B689D491343C1F88830D2
:103B88007B681B6803F00203002B0AD0984BD3F81C
:103B9800883023F00C027B689B6895491343C1F871
:103BA80088307B681B6803F00403002B0AD0904B15
:103BB800D3F8883023F030027B68DB688C491343E4
:103BC800C1F888307B681B6803F00803002B0AD013
:103BD800874BD3F8883023F0C0027B681B6984497F
:103BE8001343C1F888307B681B6803F01003002B6F
:103BF8000AD07F4BD3F8883023F440727B685B6926
:103C08007B491343C1F888307B681B6803F02003A5
:103C1800002B0AD0764BD3F8883023F440627B68B7
:103C28009B6973491343C1F888307B681B6803F0AC
:103C38004003002B0AD06E4BD3F8883023F440524F
:103C48007B68DB696A491343C1F888307B681B6865
:103C580003F08003002B0AD0654BD3F8883023F497
:103C680040427B681B6A62491343C1F888307B680D
:103C78001B6803F48073002B0AD05D4BD3F888309F
:103C880023F440327B685B6A59491343C1F8883092
:103C98007B681B6803F40033002B0AD0544BD3F81D
:103CA8009C3023F003027B689B6A51491343C1F897
:103CB8009C307B681B6803F40073002B0AD04C4BC4
:103CC800D3F8883023F440227B68DB6A48491343E1
:103CD800C1F888307B681B6803F48063002B15D01B
:103CE800434BD3F8883023F440127B681B6B404960
:103CF8001343C1F888307B681B6BB3F5801F05D16F
:103D08003B4BDB683A4A43F48013D3607B681B68FB
:103D180003F40063002B15D0354BD3F8883023F417
:103D280040027B685B6B32491343C1F888307B687B
:103D38005B6BB3F5800F05D12D4BDB682C4A43F440
:103D48008013D3607B681B6803F48053002B15D065
:103D5800274BD3F8883023F040727B689B6B24494B
:103D68001343C1F888307B689B6BB3F1807F05D122
:103D78001F4BDB681E4A43F48013D3607B681B68C3
:103D880003F40053002B15D0194BD3F8883023F0D7
:103D980040627B68DB6B16491343C1F888307B6847
:103DA800DB6BB3F1006F05D1114BDB68104A43F4AC
:103DB8008013D3607B681B6803F48043002B19D001
:103DC8000B4BD3F8883023F040627B681B6C0849A2
:103DD8001343C1F888307B681B6CB3F1006F09D1BD
:103DE800034BDB68024A43F48013D36002E000BF50
:103DF800001002407B681B6803F40043002B15D0B9
:103E0800294BD3F8883023F040527B685B6C2649F5
:103E18001343C1F888307B685B6CB3F1805F05D1D0
:103E2800214BDB68204A43F48033D3607B681B68EE
:103E380003F48033002B15D01B4BD3F8883023F0C4
:103E480040427B689B6C18491343C1F888307B68F3
:103E58009B6CB3F1804F05D1134BDB68124A43F4D6
:103E68008033D3607B681B6803F48023002B15D054
:103E78000D4BD3F89C3023F440127B68DB6C0A4965
:103E88001343C1F89C307B68DB6CB3F5001F05D188
:103E9800054BDB68044A43F48013D360BB7C1846A7
:103EA8001837BD4680BD00BF0010024080B582B003
:103EB80000AF78607B68002B01D1012349E07B6863
:103EC80093F83D30DBB2002B06D17B68002283F8E3
:103ED8003C207868FCF7A0FC7B68022283F83D2030
:103EE8007B681A687B6804331946104600F0C8FBE3
:103EF8007B68012283F848207B68012283F83E20F2
:103F08007B68012283F83F207B68012283F84020E8
:103F18007B68012283F841207B68012283F84220D4
:103F28007B68012283F843207B68012283F84420C0
:103F38007B68012283F845207B68012283F84620AC
:103F48007B68012283F847207B68012283F83D20A3
:103F5800002318460837BD4680BD80B582B000AF43
:103F680078607B68002B01D1012349E07B6893F8D6
:103F78003D30DBB2002B06D17B68002283F83C2061
:103F88007868FCF767FC7B68022283F83D207B6831
:103F98001A687B6804331946104600F071FB7B6889
:103FA800012283F848207B68012283F83E207B6841
:103FB800012283F83F207B68012283F840207B6838
:103FC800012283F841207B68012283F842207B6824
:103FD800012283F843207B68012283F844207B6810
:103FE800012283F845207B68012283F846207B68FC
:103FF800012283F847207B68012283F83D200023B3
:1040080018460837BD4680BD80B584B000AF7860DB
:1040180039603B68002B09D17B6893F83E30DBB2EE
:10402800012B14BF01230023DBB23CE03B68042BC7
:1040380009D17B6893F83F30DBB2012B14BF012311
:104048000023DBB22FE03B68082B09D17B6893F88B
:104058004030DBB2012B14BF01230023DBB222E086
:104068003B680C2B09D17B6893F84130DBB2012BFC
:1040780014BF01230023DBB215E03B68102B09D1E4
:104088007B6893F84230DBB2012B14BF0123002375
:10409800DBB208E07B6893F84330DBB2012B14BF36
:1040A80001230023DBB2002B01D00123A6E03B68EB
:1040B800002B04D17B68022283F83E2023E03B6872
:1040C800042B04D17B68022283F83F201BE03B6865
:1040D800082B04D17B68022283F8402013E03B6858
:1040E8000C2B04D17B68022283F841200BE03B684B
:1040F800102B04D17B68022283F8422003E07B68FE
:10410800022283F843207B681B680122396818461D
:1041180000F075FF7B681B683A4A934218D07B68A9
:104128001B68394A934213D07B681B68374A93420D
:104138000ED07B681B68364A934209D07B681B689F
:10414800344A934204D07B681B68334A934201D1B6
:10415800012300E00023002B07D07B681B685A6C02
:104168007B681B6842F400425A647B681B68254AD6
:10417800934222D07B681B68B3F1804F1DD07B68C7
:104188001B68264A934218D07B681B68244A9342CE
:1041980013D07B681B68234A93420ED07B681B6848
:1041A800194A934209D07B681B68184A934204D085
:1041B8007B681B68184A934215D17B681B689A680C
:1041C800194B1340FB60FB68062B15D0FB68B3F551
:1041D800803F11D07B681B681A687B681B6842F0B7
:1041E80001021A6008E07B681B681A687B681B6814
:1041F80042F001021A6000E000BF002318461037A1
:10420800BD4680BD002C0140003401400040014003
:1042180000440140004801400050014000040040B3
:1042280000080040000C00400700010080B586B07F
:1042380000AFF860B9607A600023FB75FB6893F8FB
:104248003C30012B01D10223FFE0FB68012283F8F7
:104258003C207B68142B00F2F08001A252F823F076
:10426800BD42000843440008434400084344000892
:10427800FD42000843440008434400084344000842
:104288003F430008434400084344000843440008EF
:104298007F4300084344000843440008434400089F
:1042A800C14300084344000843440008434400084D
:1042B80001440008FB681B68B968184600F08EFACC
:1042C800FB681B689A69FB681B6842F008029A61E0
:1042D800FB681B689A69FB681B6822F004029A61F4
:1042E800FB681B689969BB681A69FB681B680A4305
:1042F8009A61A5E0FB681B68B968184600F00AFBDC
:10430800FB681B689A69FB681B6842F400629A6143
:10431800FB681B689A69FB681B6822F480629A61D3
:10432800FB681B689969BB681B691A02FB681B68F4
:104338000A439A6184E0FB681B68B968184600F074
:104348007FFBFB681B68DA69FB681B6842F00802A0
:10435800DA61FB681B68DA69FB681B6822F00402F3
:10436800DA61FB681B68D969BB681A69FB681B6856
:104378000A43DA6164E0FB681B68B968184600F014
:10438800F3FBFB681B68DA69FB681B6842F4006290
:10439800DA61FB681B68DA69FB681B6822F48062D3
:1043A800DA61FB681B68D969BB681B691A02FB687C
:1043B8001B680A43DA6143E0FB681B68B968184662
:1043C80000F068FCFB681B681A6DFB681B6842F00C
:1043D80008021A65FB681B681A6DFB681B6822F0E7
:1043E80004021A65FB681B68196DBB681A69FB68CB
:1043F8001B680A431A6523E0FB681B68B9681846FE
:1044080000F0B2FCFB681B681A6DFB681B6842F47D
:1044180000621A65FB681B681A6DFB681B6822F44A
:1044280080621A65FB681B68196DBB681B691A02F4
:10443800FB681B680A431A6502E00123FB7500BF8D
:10444800FB68002283F83C20FB7D18461837BD46E0
:1044580080BD00BF80B584B000AF786039600023AC
:10446800FB737B6893F83C30012B01D10223F6E003
:104478007B68012283F83C207B68022283F83D2078
:104488007B681B689B68BB60BB6823F4441323F0FC
:104498007703BB60BB6823F47F43BB607B681B6802
:1044A800BA689A603B681B686F4A934200F0C18003
:1044B8006D4A934200F2C6806C4A934200F0B9807C
:1044C8006A4A934200F2BE80694A934200F0B18082
:1044D800674A934200F2B680664A934200F0A98088
:1044E800644A934200F2AE80634A934200F0A1808E
:1044F800614A934200F2A680604A934200F0998094
:104508005E4A934200F29E80B3F1101F00F0918042
:10451800B3F1101F00F29680B3F5801F00F0898078
:10452800B3F5801F00F28E80B3F5005F3ED0B3F57F
:10453800005F00F28780B3F5805F00F08680B3F5F6
:10454800805F7FD8702B1AD0702B7BD8602B50D00F
:10455800602B77D8502B3CD0502B73D8402B58D099
:10456800402B6FD8302B64D0302B6BD8202B60D0E9
:10457800202B67D8002B5CD0102B5AD062E07B68C8
:1045880018683B6899683B685A683B68DB6800F0C4
:1045980016FD7B681B689B68BB60BB6843F07703AC
:1045A800BB607B681B68BA689A604FE07B681868D4
:1045B8003B6899683B685A683B68DB6800F0FFFC19
:1045C8007B681B689A687B681B6842F480429A6023
:1045D8003CE07B6818683B6859683B68DB681A46AA
:1045E80000F02EFC7B681B685021184600F0CAFCBE
:1045F8002CE07B6818683B6859683B68DB681A469A
:1046080000F078FC7B681B686021184600F0BAFC53
:104618001CE07B6818683B6859683B68DB681A4689
:1046280000F00EFC7B681B684021184600F0AAFCCD
:104638000CE07B681A683B681B681946104600F056
:10464800A1FC03E00123FB7300E000BF7B680122AB
:1046580083F83D207B68002283F83C20FB7B1846CA
:104668001037BD4680BD00BF70001000600010000C
:104678005000100040001000300010002000100012
:1046880080B485B000AF786039607B681B68FB60D8
:104698007B68494A934217D07B68B3F1804F13D0A7
:1046A8007B68464A93420FD07B68454A93420BD0B9
:1046B8007B68444A934207D07B68434A934203D0BD
:1046C8007B68424A934208D1FB6823F07003FB6081
:1046D8003B685B68FA681343FB607B68364A934221
:1046E80023D07B68B3F1804F1FD07B68334A934255
:1046F8001BD07B68324A934217D07B68314A934279
:1047080013D07B68304A93420FD07B68304A93427B
:104718000BD07B682F4A934207D07B682E4A93427E
:1047280003D07B68294A934208D1FB6823F440737D
:10473800FB603B68DB68FA681343FB60FB6823F0A7
:1047480080023B685B691343FB603B689A687B683F
:10475800DA623B681A687B689A627B68164A9342F9
:1047680013D07B68184A93420FD07B68184A93424B
:104778000BD07B68174A934207D07B68164A93424E
:1047880003D07B68114A934203D13B681A697B685E
:104798001A637B681B6843F004027B681A607B68B5
:1047A80001225A617B68FA681A6000BF1437BD4657
:1047B8005DF8047B704700BF002C014000040040F6
:1047C80000080040000C0040003401400050014047
:1047D80000400140004401400048014080B487B0D7
:1047E80000AF786039607B681B6A7B617B681B6AF5
:1047F80023F001027B681A627B685B683B617B6817
:104808009B69FB60FB6823F4803323F07003FB6033
:10481800FB6823F00303FB603B681B68FA681343DB
:10482800FB607B6923F002037B613B689B687A69C4
:1048380013437B617B68314A934213D07B68304ACB
:1048480093420FD07B682F4A93420BD07B682E4A45
:10485800934207D07B682D4A934203D07B682C4A49
:1048680093420ED17B681B6A23F004027B681A62AC
:104878007B6923F008037B613B68DB687A69134333
:104888007B617B681D4A934213D07B681C4A934224
:104898000FD07B681B4A93420BD07B681A4A93421D
:1048A80007D07B68194A934203D07B68184A934221
:1048B80011D13B6923F480733B613B6923F4007396
:1048C8003B613B685B693A6913433B613B689B69A1
:1048D8003A6913433B617B683A695A607B68FA68B6
:1048E8009A613B685A687B685A637B687A691A627E
:1048F80000BF1C37BD465DF8047B7047002C0140A3
:10490800003401400040014000440140004801409B
:104918000050014080B487B000AF786039607B6890
:104928001B6A7B617B681B6A23F010027B681A6232
:104938007B685B683B617B689B69FB60FB6823F075
:10494800807323F4E043FB60FB6823F44073FB604F
:104958003B681B681B02FA681343FB607B6923F002
:1049680020037B613B689B681B017A6913437B6169
:104978007B682D4A934207D07B682C4A934203D028
:104988007B682B4A93420FD17B681B6A23F0400255
:104998007B681A627B6923F080037B613B68DB6874
:1049A8001B017A6913437B617B681F4A934213D0CA
:1049B8007B681E4A93420FD07B681E4A93420BD0F5
:1049C8007B681D4A934207D07B681C4A934203D0F8
:1049D8007B68174A934213D13B6923F480633B6198
:1049E8003B6923F400633B613B685B699B003A6960
:1049F80013433B613B689B699B003A6913433B61E6
:104A08007B683A695A607B68FA689A613B685A68B9
:104A18007B689A637B687A691A6200BF1C37BD4657
:104A28005DF8047B704700BF002C01400034014052
:104A3800005001400040014000440140004801404E
:104A480080B487B000AF786039607B681B6A7B618F
:104A58007B681B6A23F480727B681A627B685B68D8
:104A68003B617B68DB69FB60FB6823F4803323F0E0
:104A78007003FB60FB6823F00303FB603B681B6863
:104A8800FA681343FB607B6923F400737B613B681E
:104A98009B681B027A6913437B617B682C4A9342AB
:104AA80007D07B682B4A934203D07B682A4A9342FB
:104AB8000FD17B681B6A23F480627B681A627B696A
:104AC80023F400637B613B68DB681B027A6913434C
:104AD8007B617B681E4A934213D07B681D4A9342D0
:104AE8000FD07B681D4A93420BD07B681C4A9342C7
:104AF80007D07B681B4A934203D07B68164A9342CF
:104B080013D13B6923F480533B613B6923F4005381
:104B18003B613B685B691B013A6913433B613B6836
:104B28009B691B013A6913433B617B683A695A6088
:104B38007B68FA68DA613B685A687B68DA637B6885
:104B48007A691A6200BF1C37BD465DF8047B70475E
:104B5800002C014000340140005001400040014059
:104B6800004401400048014080B487B000AF78603D
:104B780039607B681B6A7B617B681B6A23F48052FF
:104B88007B681A627B685B683B617B68DB69FB60FA
:104B9800FB6823F0807323F4E043FB60FB6823F495
:104BA8004073FB603B681B681B02FA681343FB6099
:104BB8007B6923F400537B613B689B681B037A691C
:104BC80013437B617B682D4A934207D07B682C4A4C
:104BD800934203D07B682B4A93420FD17B681B6AB0
:104BE80023F480427B681A627B6923F400437B616B
:104BF8003B68DB681B037A6913437B617B681F4A48
:104C0800934213D07B681E4A93420FD07B681E4A9A
:104C180093420BD07B681D4A934207D07B681C4A9D
:104C2800934203D07B68174A934213D13B6923F41C
:104C380080433B613B6923F400433B613B685B690C
:104C48009B013A6913433B613B689B699B013A6945
:104C580013433B617B683A695A607B68FA68DA619A
:104C68003B685A687B681A647B687A691A6200BF75
:104C78001C37BD465DF8047B704700BF002C01401F
:104C88000034014000500140004001400044014010
:104C98000048014080B487B000AF786039607B6815
:104CA8001B6A3B617B681B6A23F480327B681A624B
:104CB8007B685B687B617B681B6DFB60FB6823F42A
:104CC800803323F07003FB603B681B68FA6813436A
:104CD800FB603B6923F400333B613B689B681B0422
:104CE8003A6913433B617B68194A934213D07B6846
:104CF800184A93420FD07B68174A93420BD07B68BF
:104D0800164A934207D07B68154A934203D07B68C2
:104D1800144A934209D17B6923F480337B613B6851
:104D28005B691B027A6913437B617B687A695A6005
:104D38007B68FA681A653B685A687B689A647B687E
:104D48003A691A6200BF1C37BD465DF8047B70479C
:104D5800002C014000340140004001400044014063
:104D6800004801400050014080B487B000AF78602F
:104D780039607B681B6A3B617B681B6A23F480127D
:104D88007B681A627B685B687B617B681B6DFB6074
:104D9800FB6823F0807323F4E043FB603B681B68E7
:104DA8001B02FA681343FB603B6923F400133B6161
:104DB8003B689B681B053A6913433B617B681A4A49
:104DC800934213D07B68194A93420FD07B68184AE4
:104DD80093420BD07B68174A934207D07B68164AE8
:104DE800934203D07B68154A934209D17B6923F427
:104DF80080237B613B685B699B027A6913437B6113
:104E08007B687A695A607B68FA681A653B685A68F1
:104E18007B68DA647B683A691A6200BF1C37BD4652
:104E28005DF8047B704700BF002C0140003401404E
:104E3800004001400044014000480140005001404A
:104E480080B487B000AFF860B9607A60FB681B6A0D
:104E58007B61FB681B6A23F00102FB681A62FB682E
:104E68001E4A934213D0FB681D4A93420FD0FB6839
:104E78001C4A93420BD0FB681B4A934207D0FB683D
:104E88001A4A934203D0FB68194A934205D1FB683A
:104E98001B6A23F00402FB681A62FB689B693B618A
:104EA8003B6923F0F0033B617B681B013A691343BC
:104EB8003B617B6923F00A037B617A69BB68134312
:104EC8007B61FB683A699A61FB687A691A6200BF7C
:104ED8001C37BD465DF8047B704700BF002C0140BD
:104EE80000340140004001400044014000480140B6
:104EF8000050014080B487B000AFF860B9607A60B4
:104F0800FB681B6A7B61FB681B6A23F01002FB6865
:104F18001A62FB68184A934207D0FB68174A934203
:104F280003D0FB68164A934205D1FB681B6A23F03D
:104F38004002FB681A62FB689B693B613B6923F48A
:104F480070433B617B681B033A6913433B617B6990
:104F580023F0A0037B61BB681B017A6913437B6163
:104F6800FB683A699A61FB687A691A6200BF1C3764
:104F7800BD465DF8047B7047002C014000340140B9
:104F88000050014080B485B000AF786039607B681C
:104F98009B68FB60FB6823F4401323F07003FB60FD
:104FA8003A68FB68134343F00703FB607B68FA68C1
:104FB8009A6000BF1437BD465DF8047B704780B423
:104FC80087B000AFF860B9607A603B60FB689B68A7
:104FD8007B617B6923F47F437B613B681A027B68B2
:104FE8001A43BB6813437A6913437B61FB687A6988
:104FF8009A6000BF1C37BD465DF8047B704780B4DB
:1050080087B000AFF860B9607A60BB6803F01F032F
:10501800012202FA03F37B61FB681A6A7B69DB43AE
:105028001A40FB681A62FB681A6ABB6803F01F0320
:10503800796801FA03F31A43FB681A6200BF1C3748
:10504800BD465DF8047B704780B485B000AF7860DA
:1050580039607B6893F83C30012B01D1022374E05E
:105068007B68012283F83C207B68022283F83D207C
:105078007B681B685B68FB607B681B689B68BB6020
:105088007B681B68344A934209D07B681B68334AA3
:10509800934204D07B681B68314A934208D1FB686D
:1050A80023F47003FB603B685B68FA681343FB609A
:1050B800FB6823F0007323F07003FB603B681B68F8
:1050C800FA681343FB607B681B68FA685A607B6860
:1050D8001B68214A934222D07B681B68B3F1804F3A
:1050E8001DD07B681B681F4A934218D07B681B68D9
:1050F8001D4A934213D07B681B681C4A93420ED00A
:105108007B681B68154A934209D07B681B68184A5C
:10511800934204D07B681B68114A93420CD1BB6848
:1051280023F08003BB603B689B68BA681343BB608D
:105138007B681B68BA689A607B68012283F83D2007
:105148007B68002283F83C20002318461437BD46AC
:105158005DF8047B704700BF002C0140003401401B
:10516800005001400004004000080040000C0040CE
:105178000040014002440346934200D1704703F8BF
:10518800011BF9E770B50D4D0D4C641BA4100026EA
:10519800A64209D10B4D0C4C00F018F8641BA41062
:1051A8000026A64205D170BD55F8043B9847013644
:1051B800EEE755F8043B98470136F2E7FC51000842
:1051C800FC510008FC51000800520008F8B500BF67
:1051D800F8BC08BC9E467047F8B500BFF8BC08BCD0
:0451E8009E46704728
:1051EC00000000000000000001020304060708098B
:0451FC00FD010008A9
:04520000D9010008C8
:0C5204000024F400100000000100000075
:04000005080009E9FD
:00000001FF
